:100000000C942A000C9447000C9447000C94470071
:100010000C9447000C9447000C94430A0C94DD099F
:100020000C94100A0C94AA090C9447000C944700F5
:100030000C9447000C9447000C9447000C94470024
:100040000C9447000C9447000C9447000C94470014
:100050000C94470011241FBECFE5D8E0DEBFCDBF12
:1000600010E0A0E6B0E0E2EEFCE102C005900D92E7
:10007000A038B107D9F710E0A0E8B0E001C01D92A8
:10008000AB3AB107E1F70E94E70D0C946F0E0C94A8
:100090000000DF93CF93CDB7DEB72C970FB6F8945F
:1000A000DEBF0FBECDBF8B836C838B81869586951B
:1000B00086958A838B81877089838C81282F30E095
:1000C0003C872B878B859C858130910509F4C9C0BD
:1000D0002B853C852230310509F485C18B859C85B3
:1000E000009709F03DC28A81282F30E03A8729879E
:1000F00089859A858130910509F43EC029853A8524
:10010000223031052CF489859A85009771F028C238
:1001100029853A852230310509F455C089859A85AB
:100120008330910509F476C01BC2AAE3B0E0EAE38C
:10013000F0E08081482F8981282F30E081E090E035
:1001400002C0880F991F2A95E2F7842B8C93ABE3AA
:10015000B0E0EBE3F0E08081482F8981282F30E088
:1001600081E090E0022E02C0880F991F0A94E2F706
:10017000809584238C93F4C1A7E3B0E0E7E3F0E03B
:100180008081482F8981282F30E081E090E002C0F3
:10019000880F991F2A95E2F7842B8C93A8E3B0E08F
:1001A000E8E3F0E08081482F8981282F30E081E06A
:1001B00090E0022E02C0880F991F0A94E2F7809502
:1001C00084238C93CDC1A4E3B0E0E4E3F0E080812C
:1001D000482F8981282F30E081E090E002C0880F0D
:1001E000991F2A95E2F7842B8C93A5E3B0E0E5E311
:1001F000F0E08081482F8981282F30E081E090E075
:10020000022E02C0880F991F0A94E2F7809584237A
:100210008C93A6C1A1E3B0E0E1E3F0E08081482F38
:100220008981282F30E081E090E002C0880F991F7B
:100230002A95E2F7842B8C93A2E3B0E0E2E3F0E0AE
:100240008081482F8981282F30E081E090E0022EC4
:1002500002C0880F991F0A94E2F7809584238C933B
:100260007FC18A81282F30E038872F838F8198853E
:100270008130910509F43FC02F8138852230310546
:100280002CF48F819885009771F06AC12F81388591
:100290002230310509F457C08F819885833091054C
:1002A00009F479C05DC1AAE3B0E0EAE3F0E080813F
:1002B000482F8981282F30E081E090E002C0880F2C
:1002C000991F2A95E2F7809584238C93ABE3B0E0E5
:1002D000EBE3F0E08081482F8981282F30E081E036
:1002E00090E0022E02C0880F991F0A94E2F78095D1
:1002F00084238C9335C1A7E3B0E0E7E3F0E080818D
:10030000482F8981282F30E081E090E002C0880FDB
:10031000991F2A95E2F7809584238C93A8E3B0E097
:10032000E8E3F0E08081482F8981282F30E081E0E8
:1003300090E0022E02C0880F991F0A94E2F7809580
:1003400084238C930DC1A4E3B0E0E4E3F0E080816A
:10035000482F8981282F30E081E090E002C0880F8B
:10036000991F2A95E2F7809584238C93A5E3B0E04A
:10037000E5E3F0E08081482F8981282F30E081E09B
:1003800090E0022E02C0880F991F0A94E2F7809530
:1003900084238C93E5C0A1E3B0E0E1E3F0E0808149
:1003A000482F8981282F30E081E090E002C0880F3B
:1003B000991F2A95E2F7809584238C93A2E3B0E0FD
:1003C000E2E3F0E08081482F8981282F30E081E04E
:1003D00090E0022E02C0880F991F0A94E2F78095E0
:1003E00084238C93BDC08A81282F30E03E832D83E7
:1003F0008D819E818130910509F43EC02D813E8121
:10040000223031052CF48D819E81009771F0A8C0B7
:100410002D813E812230310509F455C08D819E81A8
:100420008330910509F476C09BC0AAE3B0E0EAE30B
:10043000F0E08081482F8981282F30E081E090E032
:1004400002C0880F991F2A95E2F7809584238C9328
:10045000ABE3B0E0EBE3F0E08081482F8981282F07
:1004600030E081E090E0022E02C0880F991F0A94CC
:10047000E2F7842B8C9374C0A7E3B0E0E7E3F0E0ED
:100480008081482F8981282F30E081E090E002C0F0
:10049000880F991F2A95E2F7809584238C93A8E30F
:1004A000B0E0E8E3F0E08081482F8981282F30E038
:1004B00081E090E0022E02C0880F991F0A94E2F7B3
:1004C000842B8C934DC0A4E3B0E0E4E3F0E08081A2
:1004D000482F8981282F30E081E090E002C0880F0A
:1004E000991F2A95E2F7809584238C93A5E3B0E0C9
:1004F000E5E3F0E08081482F8981282F30E081E01A
:1005000090E0022E02C0880F991F0A94E2F7842B14
:100510008C9326C0A1E3B0E0E1E3F0E08081482FB6
:100520008981282F30E081E090E002C0880F991F78
:100530002A95E2F7809584238C93A2E3B0E0E2E36E
:10054000F0E08081482F8981282F30E081E090E021
:10055000022E02C0880F991F0A94E2F7842B8C9315
:100560002C960FB6F894DEBF0FBECDBFCF91DF91B2
:100570000895DF93CF93CDB7DEB728970FB6F894E1
:10058000DEBF0FBECDBF8B836C838B818695869536
:1005900086958A838B81877089838C81813009F06D
:1005A0006FC08A81282F30E038872F838F8198850C
:1005B0008130910549F12F813885223031052CF4A5
:1005C0008F819885009761F0D2C02F8138852230C5
:1005D000310571F18F81988583309105E9F1C7C0AC
:1005E000ABE3B0E0EBE3F0E08081482F8981282F76
:1005F00030E081E090E0022E02C0880F991F0A943B
:10060000E2F7842B8C93B3C0A8E3B0E0E8E3F0E01A
:100610008081482F8981282F30E081E090E0022EF0
:1006200002C0880F991F0A94E2F7842B8C939FC015
:10063000A5E3B0E0E5E3F0E08081482F8981282F31
:1006400030E081E090E0022E02C0880F991F0A94EA
:10065000E2F7842B8C938BC0A2E3B0E0E2E3F0E0FE
:100660008081482F8981282F30E081E090E0022EA0
:1006700002C0880F991F0A94E2F7842B8C9377C0ED
:100680008C81882309F073C08A81282F30E03E8353
:100690002D838D819E818130910559F12D813E817F
:1006A000223031052CF48D819E81009769F05FC066
:1006B0002D813E812230310589F18D819E818330EB
:1006C000910509F440C053C0ABE3B0E0EBE3F0E0C8
:1006D0008081482F8981282F30E081E090E0022E30
:1006E00002C0880F991F0A94E2F7809584238C93A7
:1006F0003EC0A8E3B0E0E8E3F0E08081482F8981C4
:10070000282F30E081E090E0022E02C0880F991F70
:100710000A94E2F7809584238C9329C0A5E3B0E086
:10072000E5E3F0E08081482F8981282F30E081E0E7
:1007300090E0022E02C0880F991F0A94E2F780957C
:1007400084238C9314C0A2E3B0E0E2E3F0E0808164
:10075000482F8981282F30E081E090E0022E02C0EE
:10076000880F991F0A94E2F7809584238C9328962A
:100770000FB6F894DEBF0FBECDBFCF91DF910895C5
:10078000DF93CF9300D000D000D0CDB7DEB78C83FD
:100790008C818695869586958B838C8187708A83DC
:1007A00019828B81282F30E03E832D834D815E811D
:1007B0004130510541F18D819E818230910534F4A3
:1007C0002D813E812115310561F052C04D815E8140
:1007D0004230510551F18D819E8183309105B9F1EF
:1007E00047C0E9E3F0E08081282F30E08A81882F3C
:1007F00090E0A90102C0559547958A95E2F7CA0194
:100800008170898335C0E6E3F0E08081282F30E0F5
:100810008A81882F90E0A90102C0559547958A9555
:10082000E2F7CA018170898323C0E3E3F0E08081AD
:10083000282F30E08A81882F90E0A90102C05595C9
:1008400047958A95E2F7CA018170898311C0E0E378
:10085000F0E08081282F30E08A81882F90E0A90184
:1008600002C0559547958A95E2F7CA018170898340
:10087000898126960FB6F894DEBF0FBECDBFCF910B
:10088000DF910895DF93CF9300D000D0CDB7DEB7CE
:1008900089836A838981282F30E03C832B838B8175
:1008A0009C8181309105D1F02B813C812230310532
:1008B0002CF48B819C81009761F01EC02B813C81C0
:1008C0002230310581F08B819C818330910581F04C
:1008D00013C0EBE3F0E08A8180830EC0E8E3F0E030
:1008E0008A81808309C0E5E3F0E08A81808304C0C7
:1008F000E2E3F0E08A8180830F900F900F900F90D9
:10090000CF91DF910895DF93CF930F92CDB7DEB7EC
:1009100019820EC08981882F90E0FC01E05AFF4FB8
:1009200090818981692F0E94490089818F5F898325
:100930008981803278F30F90CF91DF910895DF9312
:10094000CF9300D000D00F92CDB7DEB78B838B81D1
:100950008695869586958A838B81877089838A811F
:10096000282F30E03D832C838C819D81813091053F
:1009700049F12C813D81223031052CF48C819D81FF
:10098000009761F05AC02C813D812230310571F110
:100990008C819D8183309105E9F14FC0ABE3B0E0DC
:1009A000EBE3F0E08081482F8981282F30E081E05F
:1009B00090E0022E02C0880F991F0A94E2F7842764
:1009C0008C933BC0A8E3B0E0E8E3F0E08081482FDF
:1009D0008981282F30E081E090E0022E02C0880F4C
:1009E000991F0A94E2F784278C9327C0A5E3B0E00F
:1009F000E5E3F0E08081482F8981282F30E081E015
:100A000090E0022E02C0880F991F0A94E2F7842713
:100A10008C9313C0A2E3B0E0E2E3F0E08081482FC2
:100A20008981282F30E081E090E0022E02C0880FFB
:100A3000991F0A94E2F784278C930F900F900F90E0
:100A40000F900F90CF91DF910895DF93CF93CDB7A3
:100A5000DEB723EB35E081E090E0B9010E94230B83
:100A60007894CF91DF910895DF93CF9300D000D099
:100A700000D0CDB7DEB78A837C836B835E834D83E2
:100A800019828B819C81009789F18A81282F30E01F
:100A9000C901880F991F880F991F820F931FFC01AE
:100AA000E058FF4F8D819E81918380838A81282F1A
:100AB00030E0C901880F991F880F991F820F931F7B
:100AC000FC01EE57FF4F8B819C81918380838A814B
:100AD000282F30E0C901880F991F880F991F820FB6
:100AE000931FFC01EC57FF4F108202C081E0898305
:100AF000898126960FB6F894DEBF0FBECDBFCF9189
:100B0000DF910895DF93CF930F92CDB7DEB789833E
:100B10008981282F30E0C901880F991F880F991FFC
:100B2000820F931FFC01EC57FF4F81E080830F90F1
:100B3000CF91DF910895DF93CF930F92CDB7DEB7BA
:100B400089838981282F30E0C901880F991F880F78
:100B5000991F820F931FFC01EC57FF4F10820F90DB
:100B6000CF91DF910895DF93CF930F92CDB7DEB78A
:100B700080918F00909190000196909390008093C7
:100B80008F0019824EC08981282F30E0C901880F5B
:100B9000991F880F991F820F931FFC01EC57FF4F7D
:100BA00080818823D9F540918F00509190008981F0
:100BB000282F30E0C901880F991F880F991F820FD5
:100BC000931FFC01E058FF4F20813181CA01B90118
:100BD0000E94390E009711F58981282F30E0C90154
:100BE000880F991F880F991F820F931FFC01EE57E2
:100BF000FF4F80819181009789F08981282F30E013
:100C0000C901880F991F880F991F820F931FFC013C
:100C1000EE57FF4F0190F081E02D099589818F5F9C
:100C200089838981833008F4AECF0F90CF91DF9113
:100C30000895DF93CF9300D000D0CDB7DEB789837E
:100C40006A838981282F30E03C832B838B819C81B0
:100C50008130910521F12B813C81223031052CF42A
:100C60008B819C81009761F046C02B813C812230B2
:100C7000310521F18B819C818330910571F13BC05D
:100C8000A3E5B0E0E3E5F0E080818F7B8C93A3E502
:100C9000B0E0E3E5F0E08081877F8C932CC0A3E592
:100CA000B0E0E3E5F0E0808180648C93A3E5B0E000
:100CB000E3E5F0E08081877F8C931DC0A3E5B0E081
:100CC000E3E5F0E080818F7B8C93A3E5B0E0E3E582
:100CD000F0E0808188608C930EC0A3E5B0E0E3E58E
:100CE000F0E0808180648C93A3E5B0E0E3E5F0E080
:100CF000808188608C93A3E5B0E0E3E5F0E080813B
:100D0000887F8C93A3E5B0E0E3E5F0E090818A81F1
:100D1000892B8C930F900F900F900F90CF91DF91B4
:100D20000895DF93CF9300D00F92CDB7DEB78983BC
:100D30008981282F30E03B832A838A819B818130FF
:100D4000910521F12A813B81223031052CF48A81E1
:100D50009B81009761F046C02A813B81223031059A
:100D600021F18A819B818330910571F13BC0A3E51C
:100D7000B0E0E3E5F0E080818F7E8C93A3E5B0E006
:100D8000E3E5F0E080818F7D8C932CC0A3E5B0E09B
:100D9000E3E5F0E0808180618C93A3E5B0E0E3E5DA
:100DA000F0E080818F7D8C931DC0A3E5B0E0E3E58A
:100DB000F0E080818F7E8C93A3E5B0E0E3E5F0E086
:100DC000808180628C930EC0A3E5B0E0E3E5F0E0A3
:100DD000808180618C93A3E5B0E0E3E5F0E0808161
:100DE00080628C930F900F900F90CF91DF910895B8
:100DF000DF93CF93CDB7DEB7A9E5B0E0E9E5F0E04A
:100E0000808181608C93CF91DF910895DF93CF93A0
:100E1000CDB7DEB7A9E5B0E0E9E5F0E080818E7FEF
:100E20008C93CF91DF910895DF93CF93CDB7DEB749
:100E3000A9E5B0E0E9E5F0E0808182608C93CF9194
:100E4000DF910895DF93CF93CDB7DEB7A9E5B0E08A
:100E5000E9E5F0E080818D7F8C93CF91DF9108955B
:100E6000DF93CF9300D000D0CDB7DEB789836A83FC
:100E70008981282F30E03C832B838B819C818230B9
:100E8000910509F456C02B813C812330310554F47F
:100E90008B819C81009799F02B813C812130310519
:100EA00059F19DC08B819C818330910509F45EC00E
:100EB0002B813C812430310509F475C090C0AFE42A
:100EC000B0E0EFE4F0E080818E7F8C93AFE4B0E09F
:100ED000EFE4F0E080818D7F8C93AEE4B0E0EEE44F
:100EE000F0E08081877F8C93AEE4B0E0EEE4F0E048
:100EF00080818F7E8C9373C0AFE4B0E0EFE4F0E0CC
:100F000080818E7F8C93AFE4B0E0EFE4F0E08081ED
:100F10008D7F8C93AEE4B0E0EEE4F0E080818860F9
:100F20008C93AEE4B0E0EEE4F0E0808180618C93DD
:100F300056C0AFE4B0E0EFE4F0E080818E7F8C93A8
:100F4000AFE4B0E0EFE4F0E080818D7F8C93AEE41D
:100F5000B0E0EEE4F0E0808188608C93AEE4B0E035
:100F6000EEE4F0E080818F7E8C9339C0AFE4B0E096
:100F7000EFE4F0E080818E7F8C93AFE4B0E0EFE4AB
:100F8000F0E0808182608C93AEE4B0E0EEE4F0E0CB
:100F9000808188608C93AEE4B0E0EEE4F0E0808184
:100FA00080618C931CC0AFE4B0E0EFE4F0E080819E
:100FB00081608C93AFE4B0E0EFE4F0E08081826088
:100FC0008C93AEE4B0E0EEE4F0E0808188608C9336
:100FD000AEE4B0E0EEE4F0E0808180618C93AEE4BA
:100FE000B0E0EEE4F0E08081887F8C93AEE4B0E086
:100FF000EEE4F0E090818A81892B8C930F900F9022
:101000000F900F90CF91DF910895DF93CF9300D091
:101010000F92CDB7DEB789838981282F30E03B83DB
:101020002A838A819B818130910521F12A813B812C
:10103000223031052CF48A819B81009761F046C0F3
:101040002A813B812230310521F18A819B818330C5
:10105000910571F13BC0AFE4B0E0EFE4F0E08081D6
:101060008F7B8C93AFE4B0E0EFE4F0E080818F778A
:101070008C932CC0AFE4B0E0EFE4F0E080818064BA
:101080008C93AFE4B0E0EFE4F0E080818F778C9355
:101090001DC0AFE4B0E0EFE4F0E080818F7B8C9383
:1010A000AFE4B0E0EFE4F0E0808180688C930EC0A4
:1010B000AFE4B0E0EFE4F0E0808180648C93AFE4D3
:1010C000B0E0EFE4F0E0808180688C930F900F90A7
:1010D0000F90CF91DF910895DF93CF9300D00F92BF
:1010E000CDB7DEB789838981282F30E03B832A83FF
:1010F0008A819B818130910521F12A813B812230B7
:1011000031052CF48A819B81009761F046C02A81C9
:101110003B812230310521F18A819B818330910509
:1011200071F13BC0AFE4B0E0EFE4F0E080818F7E8E
:101130008C93AFE4B0E0EFE4F0E080818F7D8C939E
:101140002CC0AFE4B0E0EFE4F0E0808180618C93EC
:10115000AFE4B0E0EFE4F0E080818F7D8C931DC0C0
:10116000AFE4B0E0EFE4F0E080818F7E8C93AFE4F9
:10117000B0E0EFE4F0E0808180628C930EC0AFE4D9
:10118000B0E0EFE4F0E0808180618C93AFE4B0E008
:10119000EFE4F0E0808180628C930F900F900F90CD
:1011A000CF91DF910895DF93CF930F92CDB7DEB744
:1011B00089838981882341F4AEE4B0E0EEE4F0E075
:1011C000808180648C930AC08981813039F4AEE4D7
:1011D000B0E0EEE4F0E080818F7B8C930F90CF91B4
:1011E000DF910895DF93CF93CDB7DEB7A9E5B0E0E7
:1011F000E9E5F0E0808180628C93CF91DF910895E2
:10120000DF93CF93CDB7DEB7A9E5B0E0E9E5F0E035
:1012100080818F7D8C93CF91DF910895DF93CF9361
:10122000CDB7DEB7A9E5B0E0E9E5F0E08081846004
:101230008C93CF91DF910895DF93CF93CDB7DEB735
:10124000A9E5B0E0E9E5F0E080818B7F8C93CF9158
:10125000DF910895DF93CF93CDB7DEB7A9E5B0E076
:10126000E9E5F0E0808180618C93CF91DF91089572
:10127000DF93CF93CDB7DEB7A9E5B0E0E9E5F0E0C5
:1012800080818F7E8C93CF91DF910895DF93CF93F0
:10129000CDB7DEB7A9E5B0E0E9E5F0E08081886090
:1012A0008C93CF91DF910895DF93CF93CDB7DEB7C5
:1012B000A9E5B0E0E9E5F0E08081877F8C93CF91EC
:1012C000DF910895DF93CF9300D0CDB7DEB79A8337
:1012D000898389819A8190939200809391000F90E5
:1012E0000F90CF91DF910895DF93CF9300D0CDB7CA
:1012F000DEB79A83898389819A8190939400809341
:1013000093000F900F90CF91DF910895DF93CF93CB
:1013100000D0CDB7DEB79A83898389819A81909373
:101320009600809395000F900F90CF91DF910895D4
:10133000DF93CF9300D0CDB7DEB79A8389838981BD
:101340009A8190939800809397000F900F90CF917F
:10135000DF9108951F920F920FB60F9211242F93D1
:101360003F934F935F936F937F938F939F93AF932D
:10137000BF93EF93FF93DF93CF93CDB7DEB7809109
:10138000910090919200009729F0E0919100F091E6
:1013900092000995CF91DF91FF91EF91BF91AF91AD
:1013A0009F918F917F916F915F914F913F912F917D
:1013B0000F900FBE0F901F9018951F920F920FB6AF
:1013C0000F9211242F933F934F935F936F937F93CB
:1013D0008F939F93AF93BF93EF93FF93DF93CF933D
:1013E000CDB7DEB78091930090919400009729F0DB
:1013F000E0919300F09194000995CF91DF91FF91D6
:10140000EF91BF91AF919F918F917F916F915F917C
:101410004F913F912F910F900FBE0F901F901895F5
:101420001F920F920FB60F9211242F933F934F9359
:101430005F936F937F938F939F93AF93BF93EF933C
:10144000FF93DF93CF93CDB7DEB780919500909156
:101450009600009729F0E0919500F091960009958B
:10146000CF91DF91FF91EF91BF91AF919F918F91BC
:101470007F916F915F914F913F912F910F900FBE90
:101480000F901F9018951F920F920FB60F92112474
:101490002F933F934F935F936F937F938F939F937C
:1014A000AF93BF93EF93FF93DF93CF93CDB7DEB7A7
:1014B0008091970090919800009729F0E091970013
:1014C000F09198000995CF91DF91FF91EF91BF9135
:1014D000AF919F918F917F916F915F914F913F91CC
:1014E0002F910F900FBE0F901F901895DF93CF9301
:1014F00000D000D0CDB7DEB79C838B838B819C81DD
:101500000097D1F088EE93E02B813C81B9010E94D5
:10151000390ECB019A83898389819A81009741F0A2
:10152000E6E4F0E089819A8101979183808304C089
:10153000E6E4F0E0118210820F900F900F900F9070
:10154000CF91DF910895DF93CF9300D000D0CDB736
:10155000DEB79C838B838B819C81009709F18B8103
:101560009C819C0140E050E080E492E4AFE0B0E078
:10157000BC01CD010E944D0EDA01C9019A83898315
:1015800089819A81009741F0E6E4F0E089819A81AF
:1015900001979183808304C0E6E4F0E01182108219
:1015A0000F900F900F900F90CF91DF910895EF92D1
:1015B000FF920F931F93DF93CF9300D000D0CDB74E
:1015C000DEB79C838B838B819C818536910580F56A
:1015D0008B819C817C0100E010E0E6E4F0E08081FA
:1015E000918101969C0140E050E0C801B7010E9442
:1015F0001A0EDC01CB0124E630E040E050E0BC01F3
:10160000CD010E944D0EDA01C9019A838983898137
:101610009A818230910540F0EAE4F0E089819A8174
:1016200001979183808304C0EAE4F0E01182108284
:101630000F900F900F900F90CF91DF911F910F910E
:10164000FF90EF900895DF93CF9300D000D0CDB7F7
:10165000DEB79A8389837C836B8382E062E00E9499
:101660003007EAE4F0E029813A8188EE93E0AC01AA
:10167000249FC001259F900D349F900D1124019748
:10168000918380838B819C810E9474090E942A0926
:101690000F900F900F900F90CF91DF910895EF92E0
:1016A000FF920F931F93DF93CF93CDB7DEB72897A9
:1016B0000FB6F894DEBF0FBECDBF9E838D837887B3
:1016C0006F8310929A0010929900ECE4F0E011827E
:1016D00010828EE10E94C0038823D9F78EE10E9418
:1016E000C0038823D9F3ECE4F0E0118210828EE18C
:1016F0000E94C0038823D9F7ECE4F0E08081918157
:101700009C838B83ECE4F0E0118210828EE10E94D6
:10171000C0038823D9F3ECE4F0E0808191819A83BF
:1017200089838B819C81CC01A0E0B0E024E630E08D
:1017300040E050E0BC01CD010E941A0E7B018C01FB
:101740002B813C8189819A81820F931F9C0140E00B
:1017500050E0C801B7010E944D0EDA01C901EF81C6
:10176000F885808389819A819C0140E050E08B81DB
:101770009C81CC01A0E0B0E0280F391F4A1F5B1FFD
:1017800080E492E4AFE0B0E0BC01CD010E944D0ED8
:10179000DA01C901ED81FE8180839183A283B38345
:1017A00028960FB6F894DEBF0FBECDBFCF91DF9164
:1017B0001F910F91FF90EF900895EF92FF920F937A
:1017C0001F93DF93CF93CDB7DEB728970FB6F8946A
:1017D000DEBF0FBECDBF9E838D8378876F83ECE421
:1017E000F0E01182108284E79CE00E94980980E07A
:1017F0000E94D3080E94F20810929A001092990059
:101800008091990090919A0083309105C8F32091BE
:10181000A5003091A6008091A3009091A400A90199
:10182000481B590BCA019C838B832091A7003091E0
:10183000A8008091A5009091A600A901481B590B12
:10184000CA019A8389838B819C81CC01A0E0B0E09E
:1018500024E630E040E050E0BC01CD010E941A0EC9
:101860007B018C018B819C819C0140E050E089814F
:101870009A81CC01A0E0B0E0280F391F4A1F5B1FFE
:10188000C801B7010E944D0EDA01C901EF81F88548
:10189000808389819A819C0140E050E08B819C810A
:1018A000CC01A0E0B0E0280F391F4A1F5B1F80E485
:1018B00092E4AFE0B0E0BC01CD010E944D0EDA0130
:1018C000C901ED81FE8180839183A283B383289631
:1018D0000FB6F894DEBF0FBECDBFCF91DF911F9141
:1018E0000F91FF90EF900895DF93CF93CDB7DEB7C0
:1018F0008091990090919A00009791F4E6E4F0E0CD
:10190000808191819093A4008093A30081E00E9444
:10191000D30881E090E090939A008093990030C0C2
:101920008091990090919A008130910591F4E6E4BC
:10193000F0E0808191819093A6008093A50080E0E3
:101940000E94D30882E090E090939A0080939900DF
:1019500017C08091990090919A008230910581F48E
:10196000E6E4F0E0808191819093A8008093A70045
:101970000E94000983E090E090939A008093990080
:10198000CF91DF910895DF93CF93CDB7DEB78091EC
:10199000990090919A00009769F4ECE4F0E01182CC
:1019A000108284E79CE00E94980980E00E94D3089E
:1019B0000E94F208CF91DF910895EF92FF920F936A
:1019C0001F93DF93CF93CDB7DEB729970FB6F89467
:1019D000DEBF0FBECDBF9E838D8378876F838091DE
:1019E000990090919A008330910509F067C0209189
:1019F000A5003091A6008091A3009091A400A901B8
:101A0000481B590BCA019C838B832091A7003091FE
:101A1000A8008091A5009091A600A901481B590B30
:101A2000CA019A8389838B819C81CC01A0E0B0E0BC
:101A300024E630E040E050E0BC01CD010E941A0EE7
:101A40007B018C018B819C819C0140E050E089816D
:101A50009A81CC01A0E0B0E0280F391F4A1F5B1F1C
:101A6000C801B7010E944D0EDA01C901EF81F88566
:101A7000808389819A819C0140E050E08B819C8128
:101A8000CC01A0E0B0E0280F391F4A1F5B1F80E4A3
:101A900092E4AFE0B0E0BC01CD010E944D0EDA014E
:101AA000C901ED81FE8180839183A283B38310926B
:101AB0009A001092990051E0598701C019868985D2
:101AC00029960FB6F894DEBF0FBECDBFCF91DF9140
:101AD0001F910F91FF90EF900895DF93CF9300D067
:101AE00000D0CDB7DEB79A8389837C836B8382E095
:101AF00062E00E943007EAE4F0E087EE93E0918331
:101B0000808329813A8188EE93E0AC01249FC00153
:101B1000259F900D349F900D1124CC01A0E0B0E0E2
:101B200080939B0090939C00A0939D00B0939E0097
:101B30008B819C819093AA008093A9008BEA9DE001
:101B40000E9474090E942A090F900F900F900F9025
:101B5000CF91DF910895DF93CF93CDB7DEB780911A
:101B60009F009091A000A091A100B091A2000196C9
:101B7000A11DB11D80939F009093A000A093A10090
:101B8000B093A20020919F003091A0004091A1004D
:101B90005091A20080919B0090919C00A0919D008B
:101BA000B0919E00281739074A075B0769F4109225
:101BB0009F001092A0001092A1001092A200E0914C
:101BC000A900F091AA000995CF91DF910895DF93C4
:101BD000CF93CDB7DEB70E94830423E03EE080E0E0
:101BE000B90148EE53E00E94340520E13EE081E077
:101BF000B90140ED57E00E94340581E00E94820562
:101C00000E942505FFCFDF93CF93CDB7DEB780E0ED
:101C10000E949F0481E00E949B05CF91DF9108956F
:101C2000DF93CF93CDB7DEB781E00E949F04CF91C1
:101C3000DF910895629FD001739FF001829FE00DB4
:101C4000F11D649FE00DF11D929FF00D839FF00D3B
:101C5000749FF00D659FF00D9927729FB00DE11DE7
:101C6000F91F639FB00DE11DF91FBD01CF011124C4
:101C70000895AA1BBB1B51E107C0AA1FBB1FA617D3
:101C8000B70710F0A61BB70B881F991F5A95A9F725
:101C900080959095BC01CD010895A1E21A2EAA1B52
:101CA000BB1BFD010DC0AA1FBB1FEE1FFF1FA2170C
:101CB000B307E407F50720F0A21BB30BE40BF50B09
:101CC000661F771F881F991F1A9469F76095709592
:101CD000809590959B01AC01BD01CF010895F894CA
:021CE000FFCF34
:101CE20000000000000000010000000000000100F0
:101CF20000000000020200000202020200000100D5
:00000001FF
